{
  "_format": "hh-sol-artifact-1",
  "contractName": "SwapMultiHop",
  "sourceName": "contracts/SwapMultiHop.sol",
  "abi": [
    {
      "inputs": [],
      "name": "DAI",
      "outputs": [
        {
          "internalType": "address",
          "name": "",
          "type": "address"
        }
      ],
      "stateMutability": "view",
      "type": "function"
    },
    {
      "inputs": [],
      "name": "USDC",
      "outputs": [
        {
          "internalType": "address",
          "name": "",
          "type": "address"
        }
      ],
      "stateMutability": "view",
      "type": "function"
    },
    {
      "inputs": [],
      "name": "WETH9",
      "outputs": [
        {
          "internalType": "address",
          "name": "",
          "type": "address"
        }
      ],
      "stateMutability": "view",
      "type": "function"
    },
    {
      "inputs": [
        {
          "internalType": "uint256",
          "name": "amountIn",
          "type": "uint256"
        }
      ],
      "name": "swapExactInputMultiHop",
      "outputs": [
        {
          "internalType": "uint256",
          "name": "amountOut",
          "type": "uint256"
        }
      ],
      "stateMutability": "nonpayable",
      "type": "function"
    },
    {
      "inputs": [
        {
          "internalType": "uint256",
          "name": "amountOut",
          "type": "uint256"
        },
        {
          "internalType": "uint256",
          "name": "amountInMaximum",
          "type": "uint256"
        }
      ],
      "name": "swapExactOutputMultiHop",
      "outputs": [
        {
          "internalType": "uint256",
          "name": "amountIn",
          "type": "uint256"
        }
      ],
      "stateMutability": "nonpayable",
      "type": "function"
    },
    {
      "inputs": [],
      "name": "swapRouter",
      "outputs": [
        {
          "internalType": "contract ISwapRouter",
          "name": "",
          "type": "address"
        }
      ],
      "stateMutability": "view",
      "type": "function"
    }
  ],
  "bytecode": "0x6080604052348015600f57600080fd5b506110d88061001f6000396000f3fe608060405234801561001057600080fd5b50600436106100625760003560e01c80634aa4a4fc1461006757806357688eda1461008557806389a30271146100b5578063c31c9c07146100d3578063d05d4cdd146100f1578063e0bab4c414610121575b600080fd5b61006f61013f565b60405161007c919061095f565b60405180910390f35b61009f600480360381019061009a91906109b5565b610157565b6040516100ac91906109f1565b60405180910390f35b6100bd6102ec565b6040516100ca919061095f565b60405180910390f35b6100db610304565b6040516100e89190610a6b565b60405180910390f35b61010b60048036038101906101069190610a86565b61031c565b60405161011891906109f1565b60405180910390f35b610129610504565b604051610136919061095f565b60405180910390f35b73c02aaa39b223fe8d0a0e5c4f27ead9083c756cc281565b600061017973c02aaa39b223fe8d0a0e5c4f27ead9083c756cc233308561051c565b6101ac73c02aaa39b223fe8d0a0e5c4f27ead9083c756cc273e592427a0aece92de3edee1f18e0157c0586156484610674565b60006040518060a0016040528073c02aaa39b223fe8d0a0e5c4f27ead9083c756cc2610bb873a0b86991c6218b36c1d19d4a2e9eb0ce3606eb486064736b175474e89094c44da98b954eedeac495271d0f604051602001610211959493929190610b53565b60405160208183030381529060405281526020013373ffffffffffffffffffffffffffffffffffffffff1681526020014281526020018481526020016000815250905073e592427a0aece92de3edee1f18e0157c0586156473ffffffffffffffffffffffffffffffffffffffff1663c04b8d59826040518263ffffffff1660e01b81526004016102a19190610cd6565b6020604051808303816000875af11580156102c0573d6000803e3d6000fd5b505050506040513d601f19601f820116820180604052508101906102e49190610d0d565b915050919050565b73a0b86991c6218b36c1d19d4a2e9eb0ce3606eb4881565b73e592427a0aece92de3edee1f18e0157c0586156481565b600061033e73c02aaa39b223fe8d0a0e5c4f27ead9083c756cc233308561051c565b61037173c02aaa39b223fe8d0a0e5c4f27ead9083c756cc273e592427a0aece92de3edee1f18e0157c0586156484610674565b60006040518060a00160405280736b175474e89094c44da98b954eedeac495271d0f610bb873a0b86991c6218b36c1d19d4a2e9eb0ce3606eb48606473c02aaa39b223fe8d0a0e5c4f27ead9083c756cc26040516020016103d6959493929190610b53565b60405160208183030381529060405281526020013373ffffffffffffffffffffffffffffffffffffffff16815260200142815260200185815260200184815250905073e592427a0aece92de3edee1f18e0157c0586156473ffffffffffffffffffffffffffffffffffffffff1663f28c0498826040518263ffffffff1660e01b81526004016104659190610db0565b6020604051808303816000875af1158015610484573d6000803e3d6000fd5b505050506040513d601f19601f820116820180604052508101906104a89190610d0d565b9150828210156104fd576104d273c02aaa39b223fe8d0a0e5c4f27ead9083c756cc2306000610674565b6104fc73c02aaa39b223fe8d0a0e5c4f27ead9083c756cc23384866104f79190610e01565b6107c9565b5b5092915050565b736b175474e89094c44da98b954eedeac495271d0f81565b6000808573ffffffffffffffffffffffffffffffffffffffff166323b872dd60e01b86868660405160240161055393929190610e35565b604051602081830303815290604052907bffffffffffffffffffffffffffffffffffffffffffffffffffffffff19166020820180517bffffffffffffffffffffffffffffffffffffffffffffffffffffffff83818316178352505050506040516105bd9190610ea8565b6000604051808303816000865af19150503d80600081146105fa576040519150601f19603f3d011682016040523d82523d6000602084013e6105ff565b606091505b509150915081801561062d575060008151148061062c57508080602001905181019061062b9190610ef7565b5b5b61066c576040517f08c379a000000000000000000000000000000000000000000000000000000000815260040161066390610f81565b60405180910390fd5b505050505050565b6000808473ffffffffffffffffffffffffffffffffffffffff1663095ea7b360e01b85856040516024016106a9929190610fa1565b604051602081830303815290604052907bffffffffffffffffffffffffffffffffffffffffffffffffffffffff19166020820180517bffffffffffffffffffffffffffffffffffffffffffffffffffffffff83818316178352505050506040516107139190610ea8565b6000604051808303816000865af19150503d8060008114610750576040519150601f19603f3d011682016040523d82523d6000602084013e610755565b606091505b509150915081801561078357506000815114806107825750808060200190518101906107819190610ef7565b5b5b6107c2576040517f08c379a00000000000000000000000000000000000000000000000000000000081526004016107b990611016565b60405180910390fd5b5050505050565b6000808473ffffffffffffffffffffffffffffffffffffffff1663a9059cbb60e01b85856040516024016107fe929190610fa1565b604051602081830303815290604052907bffffffffffffffffffffffffffffffffffffffffffffffffffffffff19166020820180517bffffffffffffffffffffffffffffffffffffffffffffffffffffffff83818316178352505050506040516108689190610ea8565b6000604051808303816000865af19150503d80600081146108a5576040519150601f19603f3d011682016040523d82523d6000602084013e6108aa565b606091505b50915091508180156108d857506000815114806108d75750808060200190518101906108d69190610ef7565b5b5b610917576040517f08c379a000000000000000000000000000000000000000000000000000000000815260040161090e90611082565b60405180910390fd5b5050505050565b600073ffffffffffffffffffffffffffffffffffffffff82169050919050565b60006109498261091e565b9050919050565b6109598161093e565b82525050565b60006020820190506109746000830184610950565b92915050565b600080fd5b6000819050919050565b6109928161097f565b811461099d57600080fd5b50565b6000813590506109af81610989565b92915050565b6000602082840312156109cb576109ca61097a565b5b60006109d9848285016109a0565b91505092915050565b6109eb8161097f565b82525050565b6000602082019050610a0660008301846109e2565b92915050565b6000819050919050565b6000610a31610a2c610a278461091e565b610a0c565b61091e565b9050919050565b6000610a4382610a16565b9050919050565b6000610a5582610a38565b9050919050565b610a6581610a4a565b82525050565b6000602082019050610a806000830184610a5c565b92915050565b60008060408385031215610a9d57610a9c61097a565b5b6000610aab858286016109a0565b9250506020610abc858286016109a0565b9150509250929050565b60008160601b9050919050565b6000610ade82610ac6565b9050919050565b6000610af082610ad3565b9050919050565b610b08610b038261093e565b610ae5565b82525050565b600062ffffff82169050919050565b60008160e81b9050919050565b6000610b3582610b1d565b9050919050565b610b4d610b4882610b0e565b610b2a565b82525050565b6000610b5f8288610af7565b601482019150610b6f8287610b3c565b600382019150610b7f8286610af7565b601482019150610b8f8285610b3c565b600382019150610b9f8284610af7565b6014820191508190509695505050505050565b600081519050919050565b600082825260208201905092915050565b60005b83811015610bec578082015181840152602081019050610bd1565b60008484015250505050565b6000601f19601f8301169050919050565b6000610c1482610bb2565b610c1e8185610bbd565b9350610c2e818560208601610bce565b610c3781610bf8565b840191505092915050565b610c4b8161093e565b82525050565b610c5a8161097f565b82525050565b600060a0830160008301518482036000860152610c7d8282610c09565b9150506020830151610c926020860182610c42565b506040830151610ca56040860182610c51565b506060830151610cb86060860182610c51565b506080830151610ccb6080860182610c51565b508091505092915050565b60006020820190508181036000830152610cf08184610c60565b905092915050565b600081519050610d0781610989565b92915050565b600060208284031215610d2357610d2261097a565b5b6000610d3184828501610cf8565b91505092915050565b600060a0830160008301518482036000860152610d578282610c09565b9150506020830151610d6c6020860182610c42565b506040830151610d7f6040860182610c51565b506060830151610d926060860182610c51565b506080830151610da56080860182610c51565b508091505092915050565b60006020820190508181036000830152610dca8184610d3a565b905092915050565b7f4e487b7100000000000000000000000000000000000000000000000000000000600052601160045260246000fd5b6000610e0c8261097f565b9150610e178361097f565b9250828203905081811115610e2f57610e2e610dd2565b5b92915050565b6000606082019050610e4a6000830186610950565b610e576020830185610950565b610e6460408301846109e2565b949350505050565b600081905092915050565b6000610e8282610bb2565b610e8c8185610e6c565b9350610e9c818560208601610bce565b80840191505092915050565b6000610eb48284610e77565b915081905092915050565b60008115159050919050565b610ed481610ebf565b8114610edf57600080fd5b50565b600081519050610ef181610ecb565b92915050565b600060208284031215610f0d57610f0c61097a565b5b6000610f1b84828501610ee2565b91505092915050565b600082825260208201905092915050565b7f5354460000000000000000000000000000000000000000000000000000000000600082015250565b6000610f6b600383610f24565b9150610f7682610f35565b602082019050919050565b60006020820190508181036000830152610f9a81610f5e565b9050919050565b6000604082019050610fb66000830185610950565b610fc360208301846109e2565b9392505050565b7f5341000000000000000000000000000000000000000000000000000000000000600082015250565b6000611000600283610f24565b915061100b82610fca565b602082019050919050565b6000602082019050818103600083015261102f81610ff3565b9050919050565b7f5354000000000000000000000000000000000000000000000000000000000000600082015250565b600061106c600283610f24565b915061107782611036565b602082019050919050565b6000602082019050818103600083015261109b8161105f565b905091905056fea264697066735822122081facb1d33ab5def754b2a1f1d5c669e26e4539fcd387d6a78d3edd3042ddd3264736f6c634300081c0033",
  "linkReferences": {},
  "deployedLinkReferences": {}
}